{
  "_format": "hh-sol-artifact-1",
  "contractName": "Prices",
  "sourceName": "contracts/Prices.sol",
  "abi": [
    {
      "inputs": [],
      "stateMutability": "nonpayable",
      "type": "constructor"
    },
    {
      "inputs": [
        {
          "internalType": "string",
          "name": "symbol",
          "type": "string"
        }
      ],
      "name": "getLatestPrice",
      "outputs": [
        {
          "internalType": "int256",
          "name": "",
          "type": "int256"
        }
      ],
      "stateMutability": "view",
      "type": "function"
    },
    {
      "inputs": [],
      "name": "getMultiplePrices",
      "outputs": [
        {
          "internalType": "string[]",
          "name": "",
          "type": "string[]"
        },
        {
          "internalType": "int256[]",
          "name": "",
          "type": "int256[]"
        }
      ],
      "stateMutability": "view",
      "type": "function"
    },
    {
      "inputs": [
        {
          "internalType": "uint256",
          "name": "",
          "type": "uint256"
        }
      ],
      "name": "supportedSymbols",
      "outputs": [
        {
          "internalType": "string",
          "name": "",
          "type": "string"
        }
      ],
      "stateMutability": "view",
      "type": "function"
    }
  ],
  "bytecode": "0x608060405234801561001057600080fd5b50604080516104a081018252600361046082018181526208aa8960eb1b6104808401528252825180840184528181526242544360e81b60208281019190915280840191909152835180850185526004808252634c494e4b60e01b828401528486019190915284518086018652818152635553444360e01b818401526060850152845180860186528381526244414960e81b818401526080850152845180860186528381526210555160ea1b8184015260a085015284518086018652600680825265084a8868aa8960d31b8285015260c08601919091528551808701875282815263086a6a0b60e31b8185015260e08601528551808701875284815262435a4b60e81b81850152610100860152855180870187528481526222aaa960e91b8185015261012086015285518087018752600580825264115555109360da1b82860152610140870191909152865180880188528181526408c9ea4a8960db1b8186015261016087015286518088018852601581527f466964656c69747953656c656374656446756e6473000000000000000000000081860152610180870152865180880188528581526204742560ec1b818601526101a0870152865180880188528581526247484f60e81b818601526101c087015286518088018852838152634942303160e01b818601526101e087015286518088018852838152634942544160e01b8186015261020087015286518088018852858152624a505960e81b81860152610220870152865180880188526007815266098929c968aa8960cb1b81860152610240870152865180880188528381526309e8aa8960e31b81860152610260870152865180880188528181526414165554d160da1b8186015261028087015286518088018852858152620a69cb60eb1b818601526102a08701528651808801885281815264535553444560d81b818601526102c087015286518088018852838152635553434360e01b818601526102e087015286518088018852838152635553444560e01b8186015261030087015286518088018852838152635553444760e01b8186015261032087015286518088018852838152631554d11360e21b8186015261034087015286518088018852928352632aa9aa2160e11b8385015261036086019290925285518087018752828152641554d5109360da1b8185015261038086015285518087018752818152650aea6a88aa8960d31b818501526103a086015285518087018752918252640aea88eb0b60db1b828401526103c0850191909152845180860186529283526258415560e81b838301526103e08401929092528351808501855260118152705a4b73796e634865616c7468636865636b60781b8183015261040084015283518085018552601481527f737445544850726f6f664f665265736572766573000000000000000000000000818301526104208401528351808501909452908352651d199092531360d21b9083015261044081019190915261045e90600190602361102f565b5073694aa1769357215de4fac081bf1f309adc325306600060405161048c906208aa8960eb1b815260030190565b90815260405190819003602001812080546001600160a01b03939093166001600160a01b0319909316929092179091556242544360e81b8152731b44f3514812d835eb1bdb0acb33d3fa3351ee439060009060030190815260405190819003602001812080546001600160a01b03939093166001600160a01b031990931692909217909155634c494e4b60e01b815273c59e3633baac79493d908e63626716e204a45edf9060009060040190815260405190819003602001812080546001600160a01b03939093166001600160a01b031990931692909217909155635553444360e01b815273a2f78ab2355fe2f984d808b5cee7fd0a93d5270e9060009060040190815260405190819003602001812080546001600160a01b03939093166001600160a01b0319909316929092179091556244414960e81b81527314866185b1962b63c3ea9e03bc1da838bab34c199060009060030190815260405190819003602001812080546001600160a01b03939093166001600160a01b0319909316929092179091556244414960e81b81527314866185b1962b63c3ea9e03bc1da838bab34c199060009060030190815260405190819003602001812080546001600160a01b03939093166001600160a01b0319909316929092179091556210555160ea1b815273b0c712f98dae15264c8e26132bcc91c40ad4d5f99060009060030190815260405190819003602001812080546001600160a01b03939093166001600160a01b03199093169290921790915565084a8868aa8960d31b8152735fb1616f78da7afc9ff79e0371741a747d2a7f229060009060060190815260405190819003602001812080546001600160a01b03939093166001600160a01b03199093169290921790915566109510d7d0531560ca1b81527338c8b98a2cb36a55234323d7eccd36ad3bfc59549060009060070190815260405190819003602001812080546001600160a01b03939093166001600160a01b03199093169290921790915563086a6a0b60e31b8152734b531a318b0e44b549f3b2f824721b3d0d51930a9060009060040190815260405190819003602001812080546001600160a01b03939093166001600160a01b03199093169290921790915562435a4b60e81b815273c32f0a9d70a34b9e7377c10fdad88512596f61ea9060009060030190815260405190819003602001812080546001600160a01b03939093166001600160a01b0319909316929092179091556222aaa960e91b8152731a81afb8146aeffcfc5e50e8479e826e7d55b9109060009060030190815260405190819003602001812080546001600160a01b03939093166001600160a01b0319909316929092179091556822aaaa21262fa720ab60b91b81527307a4307f42c4e20a26c06398e81406bee037a8f59060009060090190815260405190819003602001812080546001600160a01b03939093166001600160a01b0319909316929092179091556408c9ea4a8960db1b815273070bf128e88a4520b3efa65ab1e4eb6f0f9e66329060009060050190815260405190819003602001812080546001600160a01b03939093166001600160a01b0319909316929092179091557f466964656c6974795f53686f72744475726174696f6e00000000000000000000815273691589658b328941fefa0b4d37936dae64b7990b9060009060160190815260405190819003602001812080546001600160a01b03939093166001600160a01b0319909316929092179091556204742560ec1b81527391fab41f5f3be955963a986366edacff1aaeaa839060009060030190815260405190819003602001812080546001600160a01b03939093166001600160a01b0319909316929092179091556247484f60e81b815273635a86f9fdd16ff09a0701c305d3a845f1758b8e9060009060030190815260405190819003602001812080546001600160a01b03939093166001600160a01b031990931692909217909155634942303160e01b815273b677bfbc9b09a3469695f40477d05bc9bcb15f509060009060040190815260405190819003602001812080546001600160a01b03939093166001600160a01b031990931692909217909155624a505960e81b8152738a6af2b75f23831adc973ce6288e5329f63d86c69060009060030190815260405190819003602001812080546001600160a01b03939093166001600160a01b03199093169290921790915566098929c968aa8960cb1b81527342585ed362b3f1bca95c640fdff35ef8992127349060009060070190815260405190819003602001812080546001600160a01b03939093166001600160a01b0319909316929092179091556609e8aa8908aa8960cb1b8152737236e415bec6f9a1747e223528ef9e38a1d366999060009060070190815260405190819003602001812080546001600160a01b03939093166001600160a01b0319909316929092179091556414165554d160da1b81527357020ba11d61b188a1fd390b108d233d87c060579060009060050190815260405190819003602001812080546001600160a01b03939093166001600160a01b031990931692909217909155620a69cb60eb1b815273c0f82a46033b8bdba4bb0b0e28bc2006f64355bc9060009060030190815260405190819003602001812080546001600160a01b03939093166001600160a01b03199093169290921790915564535553444560d81b8152736f7be09227d98ce1df812d5bc745c0c775507e929060009060050190815260405190819003602001812080546001600160a01b03939093166001600160a01b031990931692909217909155635553444560e01b81527355ec7c3ed0d7cb5df4d3d8bfed2ecaf28b4638fb9060009060040190815260405190819003602001812080546001600160a01b03939093166001600160a01b031990931692909217909155635553444760e01b81527390e422f6b8cb0bd178c0f84764ad790715cbc2aa9060009060040190815260405190819003602001812080546001600160a01b03939093166001600160a01b031990931692909217909155631554d11360e21b8152735376b13e1622cb498e0e95f328fc7547e827fcc89060009060040190815260405190819003602001812080546001600160a01b03939093166001600160a01b03199093169290921790915567555354425f41554d60c01b815273c778354117fd7c9280467e5b142d3259d993c0d59060009060080190815260405190819003602001812080546001600160a01b03939093166001600160a01b031990931692909217909155682aa9aa21262fa720ab60b91b815273338e8556826a55a6cc04827adb1eecfd9dbf3ca79060009060090190815260405190819003602001812080546001600160a01b03939093166001600160a01b031990931692909217909155650aea6a88aa8960d31b815273aaabb530434b0eeaac9a42e25dbc6a22d7be218e9060009060060190815260405190819003602001812080546001600160a01b03939093166001600160a01b0319909316929092179091556258415560e81b815273c5981f461d74c46eb4b0cf3f4ec79f025573b0ea9060009060030190815260405190819003602001812080546001600160a01b03939093166001600160a01b031990931692909217909155715a4b53796e635f4865616c7468636865636b60701b815273ab9ea51108f935df6b060cee68b3989c27cecc559060009060120190815260405190819003602001812080546001600160a01b03939093166001600160a01b0319909316929092179091557f73744554485f50726f6f665f6f665f52657365727665730000000000000000008152738328e01902a47942eecb9dbf97d6bf9dd3bd07e69060009060170190815260405190819003602001812080546001600160a01b03939093166001600160a01b031990931692909217909155693a332124a6262fa720ab60b11b81527398893037aa4462201a75cf483a60883f09c4253790600090600a0190815260405190819003602001902080546001600160a01b03929092166001600160a01b0319909216919091179055611251565b828054828255906000526020600020908101928215611075579160200282015b8281111561107557825182906110659082611193565b509160200191906001019061104f565b50611081929150611085565b5090565b8082111561108157600061109982826110a2565b50600101611085565b5080546110ae9061110a565b6000825580601f106110be575050565b601f0160209004906000526020600020908101906110dc91906110df565b50565b5b8082111561108157600081556001016110e0565b634e487b7160e01b600052604160045260246000fd5b600181811c9082168061111e57607f821691505b60208210810361113e57634e487b7160e01b600052602260045260246000fd5b50919050565b601f82111561118e57806000526020600020601f840160051c8101602085101561116b5750805b601f840160051c820191505b8181101561118b5760008155600101611177565b50505b505050565b81516001600160401b038111156111ac576111ac6110f4565b6111c0816111ba845461110a565b84611144565b6020601f8211600181146111f457600083156111dc5750848201515b600019600385901b1c1916600184901b17845561118b565b600084815260208120601f198516915b828110156112245787850151825560209485019460019092019101611204565b50848210156112425786840151600019600387901b60f8161c191681555b50505050600190811b01905550565b610778806112606000396000f3fe608060405234801561001057600080fd5b50600436106100415760003560e01c8063932d68a614610046578063d94dc27e1461006f578063f66a1b7114610085575b600080fd5b61005961005436600461046f565b6100a6565b60405161006691906104d8565b60405180910390f35b610077610152565b6040516100669291906104f2565b6100986100933660046105ac565b610360565b604051908152602001610066565b600181815481106100b657600080fd5b9060005260206000200160009150905080546100d190610665565b80601f01602080910402602001604051908101604052809291908181526020018280546100fd90610665565b801561014a5780601f1061011f5761010080835404028352916020019161014a565b820191906000526020600020905b81548152906001019060200180831161012d57829003601f168201915b505050505081565b600154606090819060008167ffffffffffffffff81111561017557610175610596565b60405190808252806020026020018201604052801561019e578160200160208202803683370190505b50905060005b8281101561027f5761025a600182815481106101c2576101c261069f565b9060005260206000200180546101d790610665565b80601f016020809104026020016040519081016040528092919081815260200182805461020390610665565b80156102505780601f1061022557610100808354040283529160200191610250565b820191906000526020600020905b81548152906001019060200180831161023357829003601f168201915b5050505050610360565b82828151811061026c5761026c61069f565b60209081029190910101526001016101a4565b5060018181805480602002602001604051908101604052809291908181526020016000905b828210156103505783829060005260206000200180546102c390610665565b80601f01602080910402602001604051908101604052809291908181526020018280546102ef90610665565b801561033c5780601f106103115761010080835404028352916020019161033c565b820191906000526020600020905b81548152906001019060200180831161031f57829003601f168201915b5050505050815260200190600101906102a4565b5050505091509350935050509091565b6000806001600160a01b031660008360405161037c91906106b5565b908152604051908190036020019020546001600160a01b0316036103db5760405162461bcd60e51b815260206004820152601260248201527146656564206e6f7420617661696c61626c6560701b604482015260640160405180910390fd5b600080836040516103ec91906106b5565b9081526040805191829003602001822054633fabe5a360e21b835290516001600160a01b039091169163feaf968c9160048083019260a09291908290030181865afa15801561043f573d6000803e3d6000fd5b505050506040513d601f19601f8201168201806040525081019061046391906106f0565b50919695505050505050565b60006020828403121561048157600080fd5b5035919050565b60005b838110156104a357818101518382015260200161048b565b50506000910152565b600081518084526104c4816020860160208601610488565b601f01601f19169290920160200192915050565b6020815260006104eb60208301846104ac565b9392505050565b6000604082016040835280855180835260608501915060608160051b86010192506020870160005b8281101561054b57605f198786030184526105368583516104ac565b9450602093840193919091019060010161051a565b50505050828103602084015280845180835260208301915060208601925060005b8181101561058a57835183526020938401939092019160010161056c565b50909695505050505050565b634e487b7160e01b600052604160045260246000fd5b6000602082840312156105be57600080fd5b813567ffffffffffffffff8111156105d557600080fd5b8201601f810184136105e657600080fd5b803567ffffffffffffffff81111561060057610600610596565b604051601f8201601f19908116603f0116810167ffffffffffffffff8111828210171561062f5761062f610596565b60405281815282820160200186101561064757600080fd5b81602084016020830137600091810160200191909152949350505050565b600181811c9082168061067957607f821691505b60208210810361069957634e487b7160e01b600052602260045260246000fd5b50919050565b634e487b7160e01b600052603260045260246000fd5b600082516106c7818460208701610488565b9190910192915050565b805169ffffffffffffffffffff811681146106eb57600080fd5b919050565b600080600080600060a0868803121561070857600080fd5b610711866106d1565b60208701516040880151606089015192975090955093509150610736608087016106d1565b9050929550929590935056fea26469706673582212209772827e8e1e94974067819fae534a39df5c1d6cf585c9b31513da80160db77264736f6c634300081c0033",
  "linkReferences": {},
  "deployedLinkReferences": {}
}